{
  "contractName": "CandidatesContract",
  "abi": [
    {
      "inputs": [],
      "stateMutability": "nonpayable",
      "type": "constructor"
    },
    {
      "anonymous": false,
      "inputs": [
        {
          "indexed": false,
          "internalType": "uint256",
          "name": "id",
          "type": "uint256"
        },
        {
          "indexed": false,
          "internalType": "string",
          "name": "fullname",
          "type": "string"
        },
        {
          "indexed": false,
          "internalType": "string",
          "name": "agrupation",
          "type": "string"
        },
        {
          "indexed": false,
          "internalType": "uint256",
          "name": "createdAt",
          "type": "uint256"
        }
      ],
      "name": "newCandidate",
      "type": "event"
    },
    {
      "inputs": [
        {
          "internalType": "uint256",
          "name": "",
          "type": "uint256"
        }
      ],
      "name": "candidates",
      "outputs": [
        {
          "internalType": "uint256",
          "name": "id",
          "type": "uint256"
        },
        {
          "internalType": "string",
          "name": "fullname",
          "type": "string"
        },
        {
          "internalType": "string",
          "name": "agrupation",
          "type": "string"
        },
        {
          "internalType": "uint256",
          "name": "createdAt",
          "type": "uint256"
        }
      ],
      "stateMutability": "view",
      "type": "function",
      "constant": true
    },
    {
      "inputs": [],
      "name": "candidatesCounter",
      "outputs": [
        {
          "internalType": "uint256",
          "name": "",
          "type": "uint256"
        }
      ],
      "stateMutability": "view",
      "type": "function",
      "constant": true
    },
    {
      "inputs": [
        {
          "internalType": "string",
          "name": "_fullname",
          "type": "string"
        },
        {
          "internalType": "string",
          "name": "_agrupation",
          "type": "string"
        }
      ],
      "name": "addCandidate",
      "outputs": [],
      "stateMutability": "nonpayable",
      "type": "function"
    }
  ],
  "bytecode": "0x6080604052600080553480156200001557600080fd5b50620000926040518060400160405280600b81526020017f43616e64696461746f20310000000000000000000000000000000000000000008152506040518060400160405280600e81526020017f5061727469646f205072756562610000000000000000000000000000000000008152506200009860201b60201c565b6200042e565b600080815480929190620000ac9062000371565b9190505550604051806080016040528060005481526020018381526020018281526020014281525060016000805481526020019081526020016000206000820151816000015560208201518160010190805190602001906200011092919062000182565b5060408201518160020190805190602001906200012f92919062000182565b50606082015181600301559050507f90870ecbba3daf2fee84b493ecbe9d96d7ed7242499b12e07705f9fb6a8a854060005483834260405162000176949392919062000284565b60405180910390a15050565b82805462000190906200033b565b90600052602060002090601f016020900481019282620001b4576000855562000200565b82601f10620001cf57805160ff191683800117855562000200565b8280016001018555821562000200579182015b82811115620001ff578251825591602001919060010190620001e2565b5b5090506200020f919062000213565b5090565b5b808211156200022e57600081600090555060010162000214565b5090565b60006200023f82620002df565b6200024b8185620002ea565b93506200025d81856020860162000305565b62000268816200041d565b840191505092915050565b6200027e81620002fb565b82525050565b60006080820190506200029b600083018762000273565b8181036020830152620002af818662000232565b90508181036040830152620002c5818562000232565b9050620002d6606083018462000273565b95945050505050565b600081519050919050565b600082825260208201905092915050565b6000819050919050565b60005b838110156200032557808201518184015260208101905062000308565b8381111562000335576000848401525b50505050565b600060028204905060018216806200035457607f821691505b602082108114156200036b576200036a620003ee565b5b50919050565b60006200037e82620002fb565b91507fffffffffffffffffffffffffffffffffffffffffffffffffffffffffffffffff821415620003b457620003b3620003bf565b5b600182019050919050565b7f4e487b7100000000000000000000000000000000000000000000000000000000600052601160045260246000fd5b7f4e487b7100000000000000000000000000000000000000000000000000000000600052602260045260246000fd5b6000601f19601f8301169050919050565b6107c7806200043e6000396000f3fe608060405234801561001057600080fd5b50600436106100415760003560e01c806326541b561461004657806333ec9316146100625780633477ee2e14610080575b600080fd5b610060600480360381019061005b9190610403565b6100b3565b005b61006a610195565b60405161007791906104f0565b60405180910390f35b61009a6004803603810190610095919061047b565b61019b565b6040516100aa949392919061050b565b60405180910390f35b6000808154809291906100c59061067f565b9190505550604051806080016040528060005481526020018381526020018281526020014281525060016000805481526020019081526020016000206000820151816000015560208201518160010190805190602001906101279291906102db565b5060408201518160020190805190602001906101449291906102db565b50606082015181600301559050507f90870ecbba3daf2fee84b493ecbe9d96d7ed7242499b12e07705f9fb6a8a8540600054838342604051610189949392919061050b565b60405180910390a15050565b60005481565b60016020528060005260406000206000915090508060000154908060010180546101c49061061c565b80601f01602080910402602001604051908101604052809291908181526020018280546101f09061061c565b801561023d5780601f106102125761010080835404028352916020019161023d565b820191906000526020600020905b81548152906001019060200180831161022057829003601f168201915b5050505050908060020180546102529061061c565b80601f016020809104026020016040519081016040528092919081815260200182805461027e9061061c565b80156102cb5780601f106102a0576101008083540402835291602001916102cb565b820191906000526020600020905b8154815290600101906020018083116102ae57829003601f168201915b5050505050908060030154905084565b8280546102e79061061c565b90600052602060002090601f0160209004810192826103095760008555610350565b82601f1061032257805160ff1916838001178555610350565b82800160010185558215610350579182015b8281111561034f578251825591602001919060010190610334565b5b50905061035d9190610361565b5090565b5b8082111561037a576000816000905550600101610362565b5090565b600061039161038c84610583565b61055e565b9050828152602081018484840111156103ad576103ac61075a565b5b6103b88482856105da565b509392505050565b600082601f8301126103d5576103d4610755565b5b81356103e584826020860161037e565b91505092915050565b6000813590506103fd8161077a565b92915050565b6000806040838503121561041a57610419610764565b5b600083013567ffffffffffffffff8111156104385761043761075f565b5b610444858286016103c0565b925050602083013567ffffffffffffffff8111156104655761046461075f565b5b610471858286016103c0565b9150509250929050565b60006020828403121561049157610490610764565b5b600061049f848285016103ee565b91505092915050565b60006104b3826105b4565b6104bd81856105bf565b93506104cd8185602086016105e9565b6104d681610769565b840191505092915050565b6104ea816105d0565b82525050565b600060208201905061050560008301846104e1565b92915050565b600060808201905061052060008301876104e1565b818103602083015261053281866104a8565b9050818103604083015261054681856104a8565b905061055560608301846104e1565b95945050505050565b6000610568610579565b9050610574828261064e565b919050565b6000604051905090565b600067ffffffffffffffff82111561059e5761059d610726565b5b6105a782610769565b9050602081019050919050565b600081519050919050565b600082825260208201905092915050565b6000819050919050565b82818337600083830152505050565b60005b838110156106075780820151818401526020810190506105ec565b83811115610616576000848401525b50505050565b6000600282049050600182168061063457607f821691505b60208210811415610648576106476106f7565b5b50919050565b61065782610769565b810181811067ffffffffffffffff8211171561067657610675610726565b5b80604052505050565b600061068a826105d0565b91507fffffffffffffffffffffffffffffffffffffffffffffffffffffffffffffffff8214156106bd576106bc6106c8565b5b600182019050919050565b7f4e487b7100000000000000000000000000000000000000000000000000000000600052601160045260246000fd5b7f4e487b7100000000000000000000000000000000000000000000000000000000600052602260045260246000fd5b7f4e487b7100000000000000000000000000000000000000000000000000000000600052604160045260246000fd5b600080fd5b600080fd5b600080fd5b600080fd5b6000601f19601f8301169050919050565b610783816105d0565b811461078e57600080fd5b5056fea264697066735822122011691eafd23bba40c08adc6f168db796c3bd5ac20b7bd6543f78be341102b54d64736f6c63430008060033",
  "immutableReferences": {},
  "source": "// SPDX-License-Identifier: MIT\npragma solidity ^0.8.6;\n\ncontract CandidatesContract {\n\n    //id para los Candidatos\n    uint public candidatesCounter = 0;\n\n    /**Cuando se cree este contrato se ejecutara el siguiente constructor */\n    constructor () {\n        addCandidate(\"Candidato 1\", \"Partido Prueba\");\n    }\n\n    //con este describire que se devuelve una vez creado un candidato\n    event newCandidate(\n        uint id,\n        string fullname,\n        string agrupation,\n        uint createdAt\n    );\n\n    /* Se define la estructura del candidato */\n    struct Candidate {\n        uint256 id;\n        string fullname;\n        string agrupation;\n        uint256 createdAt;\n    }\n\n    /*Aqui se mapea cada candidato como un array */\n    mapping (uint256 => Candidate ) public candidates;\n\n    //agregar un candidato\n    function addCandidate(string memory _fullname, string memory _agrupation) public {\n        candidatesCounter++;\n        candidates[candidatesCounter] = Candidate(candidatesCounter, _fullname, _agrupation, block.timestamp);\n        //con esto recibo la tarea que se creo por medio del evento de arriba\n        emit newCandidate(candidatesCounter, _fullname, _agrupation, block.timestamp);\n    }\n}",
  "sourcePath": "/home/adrian/Escritorio/projects/votedapp/contracts/Candidates.sol",
  "compiler": {
    "name": "solc",
    "version": "0.8.6+commit.11564f7e.Emscripten.clang"
  },
  "schemaVersion": "3.4.7",
  "updatedAt": "2022-05-11T16:29:15.439Z",
  "networkType": "ethereum",
  "devdoc": {
    "kind": "dev",
    "methods": {},
    "version": 1
  },
  "userdoc": {
    "kind": "user",
    "methods": {
      "constructor": {
        "notice": "Cuando se cree este contrato se ejecutara el siguiente constructor "
      }
    },
    "version": 1
  }
}