{
  "contractName": "VotesContract",
  "abi": [
    {
      "anonymous": false,
      "inputs": [
        {
          "indexed": false,
          "internalType": "uint256",
          "name": "id",
          "type": "uint256"
        },
        {
          "indexed": false,
          "internalType": "string",
          "name": "fullname",
          "type": "string"
        },
        {
          "indexed": false,
          "internalType": "string",
          "name": "option",
          "type": "string"
        },
        {
          "indexed": false,
          "internalType": "bool",
          "name": "done",
          "type": "bool"
        },
        {
          "indexed": false,
          "internalType": "uint256",
          "name": "createdAt",
          "type": "uint256"
        }
      ],
      "name": "VoteMade",
      "type": "event"
    },
    {
      "anonymous": false,
      "inputs": [
        {
          "indexed": false,
          "internalType": "uint256",
          "name": "id",
          "type": "uint256"
        },
        {
          "indexed": false,
          "internalType": "bool",
          "name": "done",
          "type": "bool"
        }
      ],
      "name": "VoteProcessed",
      "type": "event"
    },
    {
      "inputs": [
        {
          "internalType": "uint256",
          "name": "",
          "type": "uint256"
        }
      ],
      "name": "votes",
      "outputs": [
        {
          "internalType": "uint256",
          "name": "id",
          "type": "uint256"
        },
        {
          "internalType": "string",
          "name": "fullname",
          "type": "string"
        },
        {
          "internalType": "string",
          "name": "option",
          "type": "string"
        },
        {
          "internalType": "bool",
          "name": "done",
          "type": "bool"
        },
        {
          "internalType": "uint256",
          "name": "createdAt",
          "type": "uint256"
        }
      ],
      "stateMutability": "view",
      "type": "function",
      "constant": true
    },
    {
      "inputs": [],
      "name": "votesCounter",
      "outputs": [
        {
          "internalType": "uint256",
          "name": "",
          "type": "uint256"
        }
      ],
      "stateMutability": "view",
      "type": "function",
      "constant": true
    },
    {
      "inputs": [
        {
          "internalType": "string",
          "name": "_fullname",
          "type": "string"
        },
        {
          "internalType": "string",
          "name": "_option",
          "type": "string"
        }
      ],
      "name": "doVote",
      "outputs": [],
      "stateMutability": "nonpayable",
      "type": "function"
    },
    {
      "inputs": [
        {
          "internalType": "uint256",
          "name": "_id",
          "type": "uint256"
        }
      ],
      "name": "proccessVote",
      "outputs": [],
      "stateMutability": "nonpayable",
      "type": "function"
    }
  ],
  "bytecode": "0x60806040526000805534801561001457600080fd5b50610ad0806100246000396000f3fe608060405234801561001057600080fd5b506004361061004c5760003560e01c80635df81330146100515780636530a37f1461008557806366f5d3a5146100a15780639632bdf9146100bd575b600080fd5b61006b60048036038101906100669190610732565b6100db565b60405161007c9594939291906107fa565b60405180910390f35b61009f600480360381019061009a9190610732565b61022e565b005b6100bb60048036038101906100b691906106ba565b61047e565b005b6100c561058c565b6040516100d291906107b6565b60405180910390f35b600160205280600052604060002060009150905080600001549080600101805461010490610925565b80601f016020809104026020016040519081016040528092919081815260200182805461013090610925565b801561017d5780601f106101525761010080835404028352916020019161017d565b820191906000526020600020905b81548152906001019060200180831161016057829003601f168201915b50505050509080600201805461019290610925565b80601f01602080910402602001604051908101604052809291908181526020018280546101be90610925565b801561020b5780601f106101e05761010080835404028352916020019161020b565b820191906000526020600020905b8154815290600101906020018083116101ee57829003601f168201915b5050505050908060030160009054906101000a900460ff16908060040154905085565b6000600160008381526020019081526020016000206040518060a00160405290816000820154815260200160018201805461026890610925565b80601f016020809104026020016040519081016040528092919081815260200182805461029490610925565b80156102e15780601f106102b6576101008083540402835291602001916102e1565b820191906000526020600020905b8154815290600101906020018083116102c457829003601f168201915b505050505081526020016002820180546102fa90610925565b80601f016020809104026020016040519081016040528092919081815260200182805461032690610925565b80156103735780601f1061034857610100808354040283529160200191610373565b820191906000526020600020905b81548152906001019060200180831161035657829003601f168201915b505050505081526020016003820160009054906101000a900460ff16151515158152602001600482015481525050905080606001511581606001901515908115158152505080600160008481526020019081526020016000206000820151816000015560208201518160010190805190602001906103f2929190610592565b50604082015181600201908051906020019061040f929190610592565b5060608201518160030160006101000a81548160ff021916908315150217905550608082015181600401559050507fee2b64d8583910dcbee7660071c15725735782f10b3d6b1a9def2adbf326728f8282606001516040516104729291906107d1565b60405180910390a15050565b60008081548092919061049090610988565b91905055506040518060a0016040528060005481526020018381526020018281526020016001151581526020014281525060016000805481526020019081526020016000206000820151816000015560208201518160010190805190602001906104fb929190610592565b506040820151816002019080519060200190610518929190610592565b5060608201518160030160006101000a81548160ff021916908315150217905550608082015181600401559050507f0b44bd64338eedaae927b86e73d36aefb4366e352fdcfc0ffb2ef74a3090861860005483836000426040516105809594939291906107fa565b60405180910390a15050565b60005481565b82805461059e90610925565b90600052602060002090601f0160209004810192826105c05760008555610607565b82601f106105d957805160ff1916838001178555610607565b82800160010185558215610607579182015b828111156106065782518255916020019190600101906105eb565b5b5090506106149190610618565b5090565b5b80821115610631576000816000905550600101610619565b5090565b600061064861064384610880565b61085b565b90508281526020810184848401111561066457610663610a63565b5b61066f8482856108e3565b509392505050565b600082601f83011261068c5761068b610a5e565b5b813561069c848260208601610635565b91505092915050565b6000813590506106b481610a83565b92915050565b600080604083850312156106d1576106d0610a6d565b5b600083013567ffffffffffffffff8111156106ef576106ee610a68565b5b6106fb85828601610677565b925050602083013567ffffffffffffffff81111561071c5761071b610a68565b5b61072885828601610677565b9150509250929050565b60006020828403121561074857610747610a6d565b5b6000610756848285016106a5565b91505092915050565b610768816108cd565b82525050565b6000610779826108b1565b61078381856108bc565b93506107938185602086016108f2565b61079c81610a72565b840191505092915050565b6107b0816108d9565b82525050565b60006020820190506107cb60008301846107a7565b92915050565b60006040820190506107e660008301856107a7565b6107f3602083018461075f565b9392505050565b600060a08201905061080f60008301886107a7565b8181036020830152610821818761076e565b90508181036040830152610835818661076e565b9050610844606083018561075f565b61085160808301846107a7565b9695505050505050565b6000610865610876565b90506108718282610957565b919050565b6000604051905090565b600067ffffffffffffffff82111561089b5761089a610a2f565b5b6108a482610a72565b9050602081019050919050565b600081519050919050565b600082825260208201905092915050565b60008115159050919050565b6000819050919050565b82818337600083830152505050565b60005b838110156109105780820151818401526020810190506108f5565b8381111561091f576000848401525b50505050565b6000600282049050600182168061093d57607f821691505b6020821081141561095157610950610a00565b5b50919050565b61096082610a72565b810181811067ffffffffffffffff8211171561097f5761097e610a2f565b5b80604052505050565b6000610993826108d9565b91507fffffffffffffffffffffffffffffffffffffffffffffffffffffffffffffffff8214156109c6576109c56109d1565b5b600182019050919050565b7f4e487b7100000000000000000000000000000000000000000000000000000000600052601160045260246000fd5b7f4e487b7100000000000000000000000000000000000000000000000000000000600052602260045260246000fd5b7f4e487b7100000000000000000000000000000000000000000000000000000000600052604160045260246000fd5b600080fd5b600080fd5b600080fd5b600080fd5b6000601f19601f8301169050919050565b610a8c816108d9565b8114610a9757600080fd5b5056fea26469706673582212201d52422bdafc6b29e6916be7f05821d21ca655c247d768d9c6f75cd150bb85d964736f6c63430008060033",
  "immutableReferences": {},
  "source": "// SPDX-License-Identifier: MIT\npragma solidity ^0.8.6;\n\ncontract VotesContract {\n\n    //contador o id para los votos\n    uint public votesCounter = 0;\n\n    /**Cuando se cree este contrato se ejecutara el siguiente constructor */\n    /*constructor () {\n        doVote(\"Usuario 1\", \"Opcion Prueba\");\n    }*/\n\n    //con este describire que se devuelve una vez hecho un voto\n    event VoteMade(\n        uint id,\n        string fullname,\n        string option,\n        bool done,\n        uint createdAt\n    );\n\n    event VoteProcessed(\n        uint id,\n        bool done \n    );\n\n    /* Se define la estructura del voto */\n    struct Vote {\n        uint256 id;\n        string fullname;\n        string option;\n        bool done;\n        uint256 createdAt;\n    }\n\n    /*Aqui se mapea cada voto como un array */\n    mapping (uint256 => Vote ) public votes;\n\n    //hacer el voto\n    function doVote(string memory _fullname, string memory _option) public {\n        votesCounter++;\n        votes[votesCounter] = Vote(votesCounter, _fullname, _option, true, block.timestamp);\n        //con esto recibo la tarea que se creo por medio del evento de arriba\n        emit VoteMade(votesCounter, _fullname, _option, false, block.timestamp);\n    }\n\n    //procesar el voto\n    function proccessVote(uint _id) public {\n        Vote memory _vote = votes[_id];\n        _vote.done = !_vote.done;\n        votes[_id] = _vote;\n        emit VoteProcessed(_id, _vote.done);\n    }\n}\n",
  "sourcePath": "/home/adrian/Escritorio/projects/votedapp/contracts/VotesContract.sol",
  "compiler": {
    "name": "solc",
    "version": "0.8.6+commit.11564f7e.Emscripten.clang"
  },
  "schemaVersion": "3.4.7",
  "updatedAt": "2022-05-11T16:29:14.078Z",
  "networkType": "ethereum",
  "devdoc": {
    "kind": "dev",
    "methods": {},
    "version": 1
  },
  "userdoc": {
    "events": {
      "VoteMade(uint256,string,string,bool,uint256)": {
        "notice": "Cuando se cree este contrato se ejecutara el siguiente constructor "
      }
    },
    "kind": "user",
    "methods": {},
    "version": 1
  }
}